:100000000C942A000C94C9000C943C000C943C0005
:100010000C943C000C943C000C943C000C943C0070
:100020000C943C000C943C000C943C000C943C0060
:100030000C943C000C943C000C943C000C943C0050
:100040000C943C000C943C000C943C000C943C0040
:100050000C943C0011241FBECFE5D4E0DEBFCDBF21
:1000600010E0A0E6B0E001C01D92A336B107E1F7B1
:100070000E94B3000C94DE000C94000083B78C66E1
:1000800083BFBB9A85B58C6685BD8F9A0895C89B42
:1000900004C0C99902C0109261009E9B05C09F9B3D
:1000A00003C08AEF80936100C89902C081E08BBBD6
:1000B000CF9B08C080916000882321F481E085BB3C
:1000C00080936000CF9B06C0989904C081E085BBF7
:1000D0008FEF8BBBB09B1BC088EA91E60197F1F7CD
:1000E000B09B13C0809161008E5E80936100CF9BB6
:1000F00007C08FEF8BBB95B385B3880F892B85BB6A
:100100009BB38BB3880F892B8BBBB099FECFB19B70
:100110001AC088EA91E60197F1F7B19B12C080916D
:10012000610082518093610095B385B386958923E0
:1001300085BB989906C015BA9BB38BB38695892366
:100140008BBBB199FECFB49B06C0809161008CBF80
:1001500013BCC6980895B49905C08091610083BD11
:100160001CBEC69A08958A9A80EC87BB8FEF8ABB23
:1001700084BB85B7836085BF80E48BBF109262002B
:10018000789481E08BBB1BBA15BA13BE15BC18BAA4
:10019000FACF1F920F920FB60F9211248F93809176
:1001A00062008F5F80936200823011F410926200CF
:1001B0008F910F900FBE0F901F901895F894FFCF5E
:00000001FF
